:020000040800F2
:1000000090180020910700082D160008B31400086E
:10001000A91500080B090008B11A0008000000002B
:10002000000000000000000000000000CD060008F5
:100030000D090008000000006507000875070008AA
:10004000AB070008AB070008AB070008AB070008C8
:10005000AB070008AB070008AB070008AB070008B8
:10006000AB070008AB070008AB070008AB070008A8
:10007000AB070008AB070008AB070008AB07000898
:10008000AB070008AB070008AB0700080000000042
:10009000000000000000000000000000AB070008A6
:1000A000AB070008AB070008AB070008AB07000868
:1000B000AB070008AB070008AB070008AB07000858
:1000C000AB070008AB070008AB070008AB07000848
:1000D000AB070008991A0008A51A000800000000E4
:1000E000AB070008AB070008AB07000800000000E2
:1000F000000000000000000000000000AB07000846
:1001000000000000AB070008AB070008AB070008C1
:1001100000000000000000000000000000000000DF
:10012000AB070008AB070008AB070008AB070008E7
:10013000AB07000800000000000000000000000005
:10014000000000000000000000000000AB070008F5
:10015000AB070008AB070008AB070008AB070008B7
:10016000AB070008AB07000800000000000000001B
:10017000000000000000000000000000000000007F
:1001800000000000AB0700080000000000000000B5
:10019000AB070008AB070008DFF80CD000F086FBC7
:1001A0000048004799200008901800200246D2E835
:1001B0004F0FC2E8431F03B1F9E77047024652E808
:1001C000000F40EA010042E8000303B1F7E770477F
:1001D00010B5024652E8000F20EA010442E800434D
:1001E00003B1F7E710BD10B5024652E8000F00EA70
:1001F00001048C4203D0BFF32F8F002010BD20EAF2
:10020000010442E8004303B1EFE710BD10B5024618
:1002100052E8000F084203D1BFF32F8F002010BD1A
:1002200020EA010442E8004303B1F1E710BD0246B1
:1002300052E8000F411C42E8001303B1F8E7704791
:1002400010B50246D2E85F0F814202D8BFF32F8F6C
:1002500010BD441CC2E8534F03B1F3E710BD10B505
:100260000246D2E85F0F441CA14200D80024C2E835
:10027000534F03B1F5E710BD024652E8000F411E8F
:1002800042E8001303B1F8E77047024652E8000F56
:1002900010B9BFF32F8F7047411E42E8001303B11E
:1002A000F4E770470246D2E85F0F10B9BFF32F8F13
:1002B0007047411EC2E8531F03B1F4E7704702467E
:1002C00052E8000F10B9BFF32F8F7047016842E862
:1002D000001303B1F4E7704702680A60BFF35F8F51
:1002E00050E8002F0B689342F6D140E8001303B1A9
:1002F000F2E770470246D2E84F0FC2E8431F03B14E
:10030000F9E77047024652E8000F40EA010042E870
:10031000000303B1F7E7704710B5024652E8000F3B
:1003200020EA010442E8004303B1F7E710BD10B52D
:10033000024652E8000F00EA01048C4203D0BFF3EA
:100340002F8F002010BD20EA010442E8004303B1D2
:10035000EFE710BD10B5024652E8000F084203D186
:10036000BFF32F8F002010BD20EA010442E80043B4
:1003700003B1F1E710BD024652E8000F411C42E80C
:10038000001303B1F8E7704710B50246D2E85F0FDB
:10039000814202D8BFF32F8F10BD441CC2E8534FD7
:1003A00003B1F3E710BD10B50246D2E85F0F441C5D
:1003B000A14200D80024C2E8534F03B1F5E710BDB5
:1003C000024652E8000F411E42E8001303B1F8E76D
:1003D0007047024652E8000F10B9BFF32F8F7047E5
:1003E000411E42E8001303B1F4E770470246D2E829
:1003F0005F0F10B9BFF32F8F7047411EC2E8531F24
:1004000003B1F4E77047024652E8000F10B9BFF39A
:100410002F8F7047016842E8001303B1F4E770477B
:1004200002680A60BFF35F8F50E8002F0B689342A9
:10043000F6D140E8001303B1F2E770470246D2E874
:100440004F0FC2E8431F03B1F9E77047024652E875
:10045000000F40EA010042E8000303B1F7E77047EC
:1004600010B5024652E8000F20EA010442E80043BA
:1004700003B1F7E710BD10B5024652E8000F00EADD
:1004800001048C4203D0BFF32F8F002010BD20EA5F
:10049000010442E8004303B1EFE710BD10B5024686
:1004A00052E8000F084203D1BFF32F8F002010BD88
:1004B00020EA010442E8004303B1F1E710BD02461F
:1004C00052E8000F411C42E8001303B1F8E77047FF
:1004D00010B50246D2E85F0F814202D8BFF32F8FDA
:1004E00010BD441CC2E8534F03B1F3E710BD10B573
:1004F0000246D2E85F0F441CA14200D80024C2E8A3
:10050000534F03B1F5E710BD024652E8000F411EFC
:1005100042E8001303B1F8E77047024652E8000FC3
:1005200010B9BFF32F8F7047411E42E8001303B18B
:10053000F4E770470246D2E85F0F10B9BFF32F8F80
:100540007047411EC2E8531F03B1F4E770470246EB
:1005500052E8000F10B9BFF32F8F7047016842E8CF
:10056000001303B1F4E7704702680A60BFF35F8FBE
:1005700050E8002F0B689342F6D140E8001303B116
:10058000F2E770470246D2E84F0FC2E8431F03B1BB
:10059000F9E77047024652E8000F40EA010042E8DE
:1005A000000303B1F7E7704710B5024652E8000FA9
:1005B00020EA010442E8004303B1F7E710BD10B59B
:1005C000024652E8000F00EA01048C4203D0BFF358
:1005D0002F8F002010BD20EA010442E8004303B140
:1005E000EFE710BD10B5024652E8000F084203D1F4
:1005F000BFF32F8F002010BD20EA010442E8004322
:1006000003B1F1E710BD024652E8000F411C42E879
:10061000001303B1F8E7704710B50246D2E85F0F48
:10062000814202D8BFF32F8F10BD441CC2E8534F44
:1006300003B1F3E710BD10B50246D2E85F0F441CCA
:10064000A14200D80024C2E8534F03B1F5E710BD22
:10065000024652E8000F411E42E8001303B1F8E7DA
:100660007047024652E8000F10B9BFF32F8F704752
:10067000411E42E8001303B1F4E770470246D2E896
:100680005F0F10B9BFF32F8F7047411EC2E8531F91
:1006900003B1F4E77047024652E8000F10B9BFF308
:1006A0002F8F7047016842E8001303B1F4E77047E9
:1006B00002680A60BFF35F8F50E8002F0B68934217
:1006C000F6D140E8001303B1F2E770471EF0040FC3
:1006D0000CBFEFF30880EFF30980816911F8021C69
:1006E00091BB01B590E80F10E047BDE800508CE8E1
:1006F0000300244B93E80600914208BF704741B9BC
:100700001EF0100F10D12049086820F00100086089
:100710000AE02CE9F00F1EF0100F08BF2CED108A34
:10072000C1F838C081F822E01A6092F82210906B6C
:1007300061F0FF0E1EF0100F08BFB0EC108AB0E899
:10074000F00F80F309887047104A13689942FAD86D
:1007500001B552F821C00FC8E047BDE80050CCF801
:100760000000704701B501F09DFFBDE80140EFF3C7
:10077000098CBEE701B502F0E9F9BDE80140EFF3ED
:10078000098CB6E77C13002034EF00E0BC3400088D
:100790000648804706480047FEE7FEE7FEE7FEE71B
:1007A000FEE7FEE7FEE7FEE7FEE7FEE729170008A3
:1007B000990100082DE9F05F0546002092469B460E
:1007C00088460646814640241BE028464146474667
:1007D000224600F05AF853465A46C01A914110D3A7
:1007E00011461846224600F041F82D1A67EB010821
:1007F0004F4622460120002100F038F817EB00098F
:100800004E41201EA4F10104DFDC484631462A4651
:100810004346BDE8F09F40EA01039B0703D009E08F
:1008200008C9121F08C0042AFAD203E011F8013BDC
:1008300000F8013B521EF9D27047D2B201E000F835
:10084000012B491EFBD270470022F6E710B5134674
:100850000A4604461946FFF7F0FF204610BD421C29
:1008600010F8011B0029FBD1801A7047202A04DBF5
:10087000203A00FA02F1002070479140C2F12003B3
:1008800020FA03F3194390407047202A04DB203AF2
:1008900021FA02F00021704721FA02F3D040C2F1A0
:1008A000200291400843194670470000064C074D4E
:1008B00006E0E06840F0010394E807009847103430
:1008C000AC42F6D3FFF76CFC84350008A435000871
:1008D00030B58C1810F8012B12F00F0301D110F86D
:1008E000013B120906D110F8012B03E010F8015B5F
:1008F00001F8015B5B1EF9D101E001F8013B521EDA
:10090000FBD1A142E6D3002030BDFEE7704770471F
:10091000704770477047704770477047704770471F
:10092000704770477047704770477047704770470F
:1009300070477047704770477047704770477047FF
:1009400070477047704770477047704770477047EF
:1009500070477047704770477047704770477047DF
:10096000704770477047704770477047704790F8FE
:100970003510022903D080214165012070470521EF
:1009800080F835100068016821F001010160002045
:10099000704700002DE9F84F00224FF001080325B1
:1009A0004FF00F0E0B6808FA02F42340A34271D1F6
:1009B0004E68012E05D0022E03D0112E01D0122E2A
:1009C00015D18668570005FA07FC26EA0C06D1F80F
:1009D0000CC00CFA07FC4CEA060CC0F808C04668CC
:1009E000A6430C79C4F30014944034434460C668B1
:1009F000570005FA07FC8C6826EA0C06BC40344315
:100A0000C4604C68022C01D0122C13D1D40800EB26
:100A10008404A346D4F8209054074FEAD46A0EFA0F
:100A20000AF629EA06090E6906FA0AF646EA0906EE
:100A3000CBF8206004680E7924EA0C0406F0030663
:100A4000BE40264306604C68E40056D52E4C26680E
:100A500046F480462660246822F0030604F48044AD
:100A600000942A4C3444A446D4F808489607370F1B
:100A70000EFA07F6B443264EB04201D1002615E027
:100A8000244EB04201D1012610E0234EB04202D1E3
:100A900002260BE031E0214EB04201D1032605E0F1
:100AA0001F4EB04201D1042600E00726BE40264377
:100AB000CCF808681B4E34684F689C43FF0300D590
:100AC0001C433460174E361D34684F689C43BF0387
:100AD00000D51C433460134E083634684F689C437D
:100AE000FF0200D51C4334600E4E0C3634684F684C
:100AF0009C43BF0200D51C433460521C102AFFF4F3
:100B000051AFBDE8F88F000044380240003001408A
:100B1000000002400004024000080240000C0240B5
:100B200000100240003C01400AB181617047090495
:100B3000FBE7000001488068704700005013002068
:100B40000B4810B5016841F400710160016841F47F
:100B500080610160016841F480710160032000F050
:100B60006FF8002000F006F800F024F8002010BD17
:100B7000003C024070B50D4D04464FF47A71287860
:100B8000B1FBF0F00A490968B1FBF0F000F002FB9C
:100B900048B9102C07D200222146501E00F030F830
:100BA00000206C6070BD012070BD0000501300205B
:100BB000601300200A4808B5016841F480410160D3
:100BC000006800F4804000900548001F016841F073
:100BD00080510160006800F08050009008BD000066
:100BE00044380240002809DB00F01F020121914037
:100BF0004009800000F1E020C0F8001170470000BB
:100C0000F0B40E4B1B680C46C3F30223C3F1070577
:100C1000042D00D90425191D072901D2002300E065
:100C2000DB1E012606FA05F1491E214099409E402F
:100C3000761E16403143F0BC00F04CBF0CED00E0D6
:100C4000064900F0070208684FF6FF03184040EA23
:100C50000220034A10430860704700000CED00E0DA
:100C60000000FA052DE9F0470E46050065D0DFF8D3
:100C70001481D8F80000F7B200F00F00B04207D29C
:100C800088F80070D8F8000000F00F00B04254D18E
:100C900028683D4C810712D5400703D5206840F4F1
:100CA000E05020602878000703D5206840F46040B9
:100CB00020602068A96820F0F000084320602878B0
:100CC000C0072DD0304968680839012812D00228A1
:100CD00013D0032811D00968890700292DDA21686B
:100CE00021F0030101432160FFF724FF814641F217
:100CF000883A0EE009688903EFE709688901ECE7A3
:100D0000FFF718FFA0EB0901514502D90320BDE808
:100D1000F0872068696800F00C00B0EB810FEFD11C
:100D2000D8F80010404601F00F01B14207D9077012
:100D3000006800F00F00B04201D00120E7E72878FA
:100D4000400705D52068E96820F4E050084320609A
:100D50002878000706D52068296920F4604040EA19
:100D6000C100206000F038F82168084AC1F303117F
:100D7000515CC8400649086006480068FFF7FAFE63
:100D80000020C4E7003C024008380240C03400089C
:100D900060130020541300200448054900680968C6
:100DA000044AC1F38221515CC8407047601300209F
:100DB00008380240D0340008044805490068096832
:100DC000044AC1F34231515CC840704760130020AF
:100DD00008380240D0340008154810B5006810F0FB
:100DE0000C02144813D04110042A0FD0082A0ED147
:100DF0000F4C241F2268236802F03F025B0207D5D4
:100E00002068C0F38810A0FB010106E0084610BD71
:100E10002168C1F38811A1FB00010023FFF7CAFC80
:100E20002168C1F30141491C4900B0FBF1F010BD3C
:100E3000083802400024F4002DE9F84F040076D071
:100E40002078DFF838A3CE4DC00749D0DAF800107B
:100E50005046C1F38101012908D00068C0F3810028
:100E600002280AD1281D0068400206D528688003A0
:100E700036D560680028E2D032E06068B0F5803F87
:100E800010D0B0F5A02F286810D020F48030286052
:100E9000286820F4802028606068A0B1FFF74AFE2F
:100EA00006460CE0286840F48030F4E740F48020E7
:100EB0002860F7E7FFF73EFE801B642873D8286898
:100EC0008003F7D50CE0FFF735FE064605E000BFCE
:100ED000FFF730FE801B6428F0D828688003F7D421
:100EE0002078DFF8A08280074FF000093ED5DAF8BD
:100EF0000010504611F00C0F09D00068C0F38100BB
:100F000002280BD19D48001F0068400206D42868C3
:100F1000800715D5E068012809D111E0E068B8B173
:100F20000120C8F80000FFF705FE064605E020E1B5
:100F3000FFF700FE801B0228C0D828688007F7D57D
:100F40002868216920F0F80040EAC10028600DE01F
:100F5000C8F80090FFF7EEFD064604E0FFF7EAFD53
:100F6000801B02281FD828688007F7D42078000744
:100F700022D5824E844861696C3671B101210160CD
:100F8000FFF7D8FD074604E0FFF7D4FDC01B022899
:100F900009D830688007F7D50EE0C0F80090FFF759
:100FA000C9FD074605E082E0FFF7C4FDC01B02282B
:100FB0007DD830688007F7D42078400768D5DFF8FF
:100FC000BCB100270BF1380BDBF80000C0000BD4DC
:100FD000DBF8001041F08051CBF80010DBF8000086
:100FE000012700F080500090684E3068C00510D492
:100FF000306840F480703060FFF79CFD009005E0A1
:10100000FFF798FD0099401A022850D83068C005B3
:10101000F6D55A4EA068683601280FD005283068EA
:1010200010D020F001003060306820F00400306003
:10103000A068B8B1FFF77EFD00900FE0306840F087
:101040000100F4E740F004003060F7E7FFF772FDBD
:101050000099411A41F28830814266D83068800791
:10106000F4D50EE0FFF766FD009007E0FFF762FDA4
:101070000099411A41F28830814256D83068800781
:10108000F4D42FB1DBF8001021F08051CBF8001020
:10109000A069D0B3DAF800205146C2F38102022AD7
:1010A0004AD00228484607D0C8F8600000E03CE07B
:1010B000FFF740FD04463BE04746C8F86000FFF7F5
:1010C00039FD064605E000BFFFF734FD801B02280E
:1010D0002BD828688001F7D4D4E907010843A16A16
:1010E0002B4A490802EB0141626A41EA8211084336
:1010F00094F82C1040EA01612048001F0160012093
:101100003866FFF717FD044605E034E0FFF712FDEF
:10111000001B022809D828688001F7D52BE000BF02
:10112000FFF708FD001B022802D90320BDE8F88F55
:1011300028688001F4D41EE00128F7D00868E2692D
:1011400000F48001914214D1226A00F03F019142E3
:101150000FD147F6C071626A0140914209D1A26A7B
:1011600000F44031914204D1E16A00F0706088429D
:1011700001D00120DAE70020D8E70000083802405B
:101180000038024000004742800E47420070004095
:101190000000FFFF10B5401EB0F1807F01D3012099
:1011A00010BD4FF0E02460610F21601700F092FC49
:1011B0000020A06107202061002010BD70470000C2
:1011C00070B5026804461068D168536910F00F0FBB
:1011D00052D003F0010501F490762E435FD0C20790
:1011E00005D0CA0503D5E26B42F00102E263420773
:1011F00005D5DA0703D0E26B42F00202E263820710
:1012000005D5DA0703D0E26B42F00402E26302077D
:1012100007D501F020022A4303D0E26B42F0080216
:10122000E263E26B002A33D0800604D5880602D53B
:10123000204600F0EDFA20684069E16BC0F38010B1
:10124000090700D428B3204600F0D4FA2068416989
:1012500049061AD5416921F040014161606BA0B196
:101260001B490165606BFFF782FB002810D0606BA3
:10127000016DBDE870400847830610D58B060ED57A
:101280002046BDE8704000F0C3BA2046FFF796FF45
:1012900070BD2046FFF792FF0020E06370BD03069B
:1012A00006D50B0604D52046BDE8704000F090BB83
:1012B0004006F3D54806F1D5D168204621F040011B
:1012C000D160202184F8391000F0F2F870BD0000E0
:1012D000E517000870B5040004D094F83900002523
:1012E00010B106E0012070BD84F83850204600F0AF
:1012F00023F8242084F839002068C16821F40051C3
:10130000C160204600F0D0FA2068016921F49041C4
:1013100001612068416921F02A0141612068C168AA
:1013200041F40051C160E563202084F8390084F85D
:101330003A00002070BD0000F0B587B004461421CB
:101340006846FFF781FA274F2268274902230124C4
:10135000032507262548BA421ED1234A14321768AE
:1013600047F010071760126802F0100205920A6831
:1013700042F001020A60096801F001010591690269
:101380008DE87A006946FFF705FB0022114625200B
:10139000FFF736FC252020E0154FBA421FD1124A34
:1013A0001032176847F400371760126802F40032F1
:1013B00005920A6842F001020A60096801F0010121
:1013C00005910C218DE87A006946FFF7E3FA0022C7
:1013D00011462620FFF714FC2620FFF703FC07B078
:1013E000F0BD000000100140303802400000024013
:1013F0000044004070472DE9F843044690F8390056
:101400001F4616460D46202850D1B5B1AEB194F80E
:10141000380001284AD0012084F838004FF0000835
:10142000C4F83C80212084F83900FFF783FBA684B0
:101430008146E68484F8388026E00120BDE8F88300
:10144000E08C401EE084A0684B46B0F5805F4FF012
:1014500000024FF080012046009703D000F0E9FA27
:10146000E8B90DE000F0E5FAC8B928882168C0F3B2
:1014700008004860206908B16D1C05E0AD1C03E060
:10148000216815F8010B4860E08C0028D8D14B4644
:10149000002240212046009700F0CBFA08B103203B
:1014A000CCE7202084F839000020C7E70220C5E7F8
:1014B0007047FEE7EFF3108018B9EFF311800028B2
:1014C00000D001207047EFF3108018B9EFF31180BE
:1014D000002800D001207047EFF3108018B9EFF317
:1014E0001180002800D001207047EFF3058000280C
:1014F00000D001207047EFF30580002800D00120C4
:101500007047EFF30580002800D0012070470000ED
:1015100030B587B014216846FFF796F91E480024BD
:10152000016841F004010160016801F004010591C6
:10153000016841F080010160016801F080010591BE
:10154000016841F001010160016801F001010591AC
:10155000016841F0020101600068104D00F00200D6
:101560000590002220212846FFF7DEFA4FF40050B4
:1015700000900B48CDE9010469460A48FFF70AFAD2
:10158000202000900120CDE90104694628460394FB
:10159000FFF700FA07B030BD3038024000000240CB
:1015A0000000211000080240FEE710B50446283074
:1015B000FEF70FFF50B1E46A05E00121A01CFEF721
:1015C00099FE20B1A468002CF7D100E00024204649
:1015D00010BD30B4026BB2B10023CC7802E01346E8
:1015E000526812B1D578A542F9D3C1E901230AB1F5
:1015F000916000E0C1620BB1596000E0016330BC52
:101600002830FEF7B8BE00224A608A60C162F5E762
:10161000D1E901320BB19A6000E0C2628A6812B16E
:1016200048685060704749680163704770474FF0E1
:10163000E0200069704700000748017829B10021C7
:10164000017006494FF0806008604FF0E0200169AA
:1016500041F00101016170475C13002004ED00E0DE
:101660004FF0FF30704700004FF0FF3138B10B4AA8
:101670001268B2FBF0F0401EB0F1807F01D3084643
:101680007047074AFF2111704FF0E02106220A61DE
:10169000486100208861034908707047601300208A
:1016A00023ED00E05C13002030B593B03021684694
:1016B000FFF7CAF814210CA8FFF7C6F81848002550
:1016C000016841F080510160006800F08050119085
:1016D0001448016841F4404101600068022400F4AC
:1016E0004040119001200390102004900094069433
:1016F0000820CDE907506420CDE9090404200B90AF
:101700006846FFF799FB0CA90F2081E83100E00241
:10171000CDE90F0503210CA8FFF7A4FA13B030BDE3
:1017200040380240007000401048016841F47001E8
:1017300001600F48016841F0010101600C4A00217D
:101740000832116002680B4B1A400260031D0A4AFE
:101750001A60026822F48022026005480C300160A1
:1017600002495806803908607047000088ED00E0A3
:1017700000380240FFFFF6FE10300024930707D424
:10178000D20700F1280001D0FEF719BFFEF72ABFEB
:10179000806AD30702D031EA000304D102F00102CB
:1017A00001400A4300D100207047000030B50C4CC6
:1017B0000023626C02E01346D268491B12B115691E
:1017C0008D42F8D98360C0E903211AB11569691AFD
:1017D000116190600BB1D86030BD606430BD000015
:1017E0006813002010B5806B0021C185C184FFF70C
:1017F000E5FC10BD0168CA6822F49072CA600168F5
:101800004A6922F001024A61202180F83A107047AB
:1018100010B590F83A10222901D0022010BD81683D
:10182000B1F5805F11D00169002901681FD04968B6
:1018300001F07F03816A4A1C82620B70C18D491ED0
:101840000904090CC18518D02BE00269816A002ABD
:101850000268526805D0D2B20A80816A491C81624E
:10186000ECE7C2F308020A80816A891CF7E74A683C
:10187000816A4B1C83620A70E0E70168CA6822F043
:101880002002CA600168CA6822F48072CA600168D6
:101890004A6922F001024A61202180F83A10FFF7DC
:1018A000A9FD002010BD00002DE9F04104460068AC
:1018B0000169E26821F44051114301612169A06886
:1018C000E26908436169114308432168CA6849F223
:1018D0000C639A430243CA6020684169A26921F4FB
:1018E000407111434161E069192764253226B0F542
:1018F000004F354A354920684FF0000806D088422D
:1019000001D0904236D1FFF757FA35E0884201D036
:10191000904202D1FFF750FA01E0FFF73DFA61680B
:101920004A18A0FB070148EB0803FEF743FF0146F6
:10193000B0FBF5F00201B1FBF5F06FF0180358436E
:1019400001EB800006EBC000B0FBF5F000F0F80002
:1019500002EB4002B1FBF5F0584301EB800006EBCF
:10196000C000B0FBF5F000F007002168104488606B
:10197000BDE8F081FFF710FA61688B0F8A00A0FBC9
:101980000701FEF717FF0146B0FBF5F06FF01802F4
:10199000504301EB800006EB0010B0FBF5F000F0C7
:1019A000F002B1FBF5F002EB0012B1FBF5F06FF0C5
:1019B0001803584301EB800006EB0010B0FBF5F074
:1019C00000F00F00D1E700000014014000100140BA
:1019D00090F83910212901D0022070478168B1F5B3
:1019E000805F016A0BD04A1C02620268097851606C
:1019F000C18C491E0904090CC1840ED017E0098866
:101A00000268C1F30801516001690029016A02D02E
:101A1000491C0162ECE7891CFBE70168CA6822F0F7
:101A20008002CA600068C16841F04001C1600020C6
:101A300070472DE9F041984617460E460446069D2C
:101A40001DE0681C1BD02DB1FFF774F8A0EB080057
:101A5000A84214D92068C16821F4D071C1602068FF
:101A6000416921F001014161202084F8390084F8A6
:101A70003A00002084F838000320BDE8F081206897
:101A8000006836EA000004D00020B842D9D0002017
:101A9000F3E70120F9E700000148FFF791BB0000E0
:101AA0000C1400200148FFF78BBB00004C140020F1
:101AB000FEE700000FB4054B10B503A9044A0298D5
:101AC00000F028F810BC5DF814FB0000951F00081A
:101AD000641300200907090E002804DB00F1E02050
:101AE00080F80014704700F00F0000F1E02080F84B
:101AF000141D704702E008C8121F08C1002AFAD15D
:101B000070477047002001E001C1121F002AFBD17D
:101B1000704700002DE9FF4F8DB00F4605460026A7
:101B200006E025280BD0DDE90F1290476D1C761CCE
:101B300028780028F5D111B03046BDE8F08F002498
:101B4000A246A1460122EC4900E0044315F8013FFA
:101B5000203B02FA03F00842F7D128782A2810D057
:101B60006FF02F022878A0F13001092914D80AEB70
:101B70008A0102EB410144F0020400EB010A6D1CF2
:101B8000F0E701CF5FEA000A03D544F40054CAF13C
:101B9000000A44F002046D1C28782E2817D115F88D
:101BA000010F44F004042A280ED06FF02F02287889
:101BB000A0F1300109290AD809EB890102EB4101A2
:101BC00000EB01096D1CF2E757F8049B6D1C2878A7
:101BD0006C280FD006DC4C2817D068280DD06A2856
:101BE00014D104E0742810D07A280FD10DE044F409
:101BF00000140AE044F4801401E044F440146978CD
:101C0000814202D104F580146D1C6D1C2A786E2A65
:101C10001FD00CDC632A31D004DC002A8BD0582A78
:101C200011D1A3E0642A68D0692A0CD165E0732A37
:101C30002ED004DC6F2A73D0702A04D19BE0752A61
:101C40006FD0782A6ED01046DDE90F129047761CCF
:101C500050E1C4F30250022806D0032809D004281A
:101C600001CF09D0066045E101CFF117C0E900615D
:101C700040E101CF06803DE106703BE117F8040B1F
:101C80008DF8000000208DF80100EB46012003E0F4
:101C900057F804BB4FF0FF3061074FF0000102D44A
:101CA0000DE008F10101884649450FDA8045F8DB6F
:101CB0001BF808100029F4D108E008F1010188465A
:101CC0008142FADB1BF808100029F6D1DDE90F2369
:101CD000AAEB08008146214600F036F9304400EBBB
:101CE000080604E0DDE90F121BF8010B9047B8F17C
:101CF0000108F7D221464846F7E00A21C4F302530F
:101D00004FF0000B0891022B04D001CFC117032B19
:101D100009D00AE0FF1D27F00707F7E8020108E0F5
:101D200032E01FE020E000B2C117042B01D140B225
:101D3000C117031E71F1000307DA4FF0000CD0EB5E
:101D40000C006CEB01012D2302E0230504D52B23AD
:101D50008DF82430012303E0E30701D02023F7E7C7
:101D6000984658E00A2110E010210EE010204FF0B4
:101D7000000B08900CE010214FF0000B44F004041D
:101D80004FF00809089103E008214FF0000B08917B
:101D9000C4F30253022B04D001CF0021032B06D041
:101DA00006E0FF1D27F00707F7E8020103E080B215
:101DB000042B00D1C0B24FF0000823072BD5702AA6
:101DC00007D0DDF820C08CF0100C5CEA0B0C05D0BD
:101DD0000EE040238DF82430012308E050EA01038F
:101DE00006D030238DF824308DF825200223984624
:101DF000DDF820C08CF0080C5CEA0B0C0BD150EA2B
:101E0000010301D1630706D530238DF824304FF04C
:101E10000108A9F10109582A04D038A20B9208AA96
:101E20000A920BE03AA2F9E75B46089AFEF7C2FC79
:101E30000B9B9B5C0A9A521E0A92137050EA010295
:101E4000F2D10A98ADEB000000F1200B600702D53B
:101E500024F4803401E04FF00109D94502DDA9EBFB
:101E60000B0000E0002000EB0B0141440890AAEBBE
:101E7000010AE00306D4DDE90F232146504600F0B5
:101E800063F806444FF0000908E009A911F80900B9
:101E9000DDE90F12904709F10109761CC145F4DB19
:101EA000E0030CD5DDE90F232146504600F04CF845
:101EB000064404E0DDE90F1230209047761C0899B3
:101EC000481E08900029F5DC08E00A980A99007875
:101ED000491C0A91DDE90F129047761CBBF1000105
:101EE000ABF1010BF1DC21465046DDE90F2300F098
:101EF00019F806446D1C1BE6092801003031323305
:101F00003435363738396162636465660000000035
:101F1000303132333435363738394142434445461F
:101F2000000000002DE9F041044600251E4617463A
:101F3000880404D405E039462020B0476D1C641E97
:101F4000F9D52846BDE8F0812DE9F0410446002589
:101F50001E469046C80301D5302700E0202788049C
:101F600004D505E041463846B0476D1C641EF9D5DE
:101F70002846BDE8F081000001A0FFF79BFDFEE7C9
:101F80006170705F6D61696E20737461727421217C
:101F90000D0A000013B54FF6FF730122694602488F
:101FA000FFF729FA00981CBD4C14002010B59CB016
:101FB00012A0FFF77FFD6422694619A800F0DAF845
:101FC0000446014612A0FFF775FD44B1214610A05A
:101FD000FFF770FD14A0FFF76DFD1CB010BD684643
:101FE000FEF73DFC01466A4615A0FFF763FD1CA005
:101FF0001A99FFF75FFD21A01999E9E76F734B6507
:10200000726E656C476574496E666F200D0A00003C
:102010006B65726E656C20737461747573203D20FE
:102020002564200D0A0000006F734B65726E656CAD
:10203000476574496E666F20456E64200D0A000086
:102040004B65726E656C20496E666F726D61746966
:102050006F6E3A205B25645D25730D0A0000000059
:102060004B65726E656C2056657273696F6E2020C9
:1020700020203A2025640D0A000000004B65726E96
:10208000656C204150492056657273696F6E3A2025
:1020900025640D0A00000000FEF752FDFFF704FB67
:1020A000FFF736FA1D481C494FF4E1350024016062
:1020B000C0E901540C26C460C0E904468461C461CF
:1020C000FFF708F91548164940300160C0E901548E
:1020D000C460C0E904468461C461FFF7FBF811A045
:1020E000FFF7E8FC00F080F800221146124800F0EB
:1020F000C9FD014611A0FFF7DDFCFFF757FF00F017
:102100005BF8012801D100F087F800F055F801468E
:1021100010A0FFF7CFFCFEE7001001400C140020D8
:102120000044004068656C6C6F20434D5349532058
:1021300021210D0A00000000791F00086F734B6514
:10214000726E656C53746172745B25585D20212139
:102150000D0A00006F734B65726E656C537461728B
:1021600074207374617475735B25645D2021210D87
:102170000A00000070B514460D460646FEF7CAFB7D
:10218000FFF7B3F940B9FFF795F928B9EFF31480D9
:1021900040F30000401C06D0224629463046BDE8E8
:1021A000704000F08BBD304629462246DFF804C05F
:1021B00000DF70BDBD2C000810B5FFF796F940B9DF
:1021C000FFF778F928B9EFF3148040F30000401CC2
:1021D00003D0BDE8104000F095BDDFF808C000DF77
:1021E00010BD0000052D000810B500F0DBF8FEF76B
:1021F00094FBFFF77AF910B9FFF75CF930B16FF093
:1022000005042046FEF785FB204610BDDFF804C01C
:1022100000DF10BD192D000810B5FEF780FBFFF799
:1022200064F910B9FFF746F930B16FF005042046A4
:10223000FEF76FFB204610BDDFF804C000DF10BDC5
:10224000512E00082DE9F0411F4616460D46044662
:10225000FEF770FBFFF74FF910B9FFF734F968B3D9
:1022600024B12078FA2801D105B137B16FF0030508
:1022700029462046FEF75DFB1DE02046FFF795F955
:10228000070012D007F10C012846626AFEF7C3FA74
:102290000EB1F87830703846FC6000F035FA294607
:1022A0002046FEF752FB002505E029462046FEF7B2
:1022B00048FB6FF002052846BDE8F081204629461C
:1022C00032463B46DFF804C000DFF5E7F12E000898
:1022D00070B514460D460646FEF731FBFFF70BF9C5
:1022E00010B9FFF7F0F830B16FF005010020FEF7EC
:1022F00020FB002070BD304629462246DFF804C08E
:1023000000DF70BDFD2F00082DE9F0411E46174685
:102310000D460446FEF716FBFFF7EDF810B9FFF780
:10232000D2F888B324B12078FA2801D105B136B1AA
:102330006FF0030529462046FEF7FBFA21E004F181
:102340000C0000F0B2F8060015D0294606F10C008A
:10235000626AFEF760FAF92030700020B070F77002
:10236000C6E90154304600F0CFF929462046FEF771
:10237000E4FA002505E029462046FEF7E1FA6FF071
:1023800002052846BDE8F081FFE7204629463A4687
:102390003346DFF808C000DFF4E700002D31000805
:1023A000FEE7FEE770472DE9F041040014D099B133
:1023B000900811D101F10F0020F0070304F108008B
:1023C000056847682E1A27F00307F61B9E420AD2BB
:1023D00028462D68002DF3D100232046FEF7A1FAF0
:1023E0000020BDE8F08166681E4466602568083DEF
:1023F00025446F68B74200D26E60456875B125F01C
:102400000305054413430668C5E900630560083504
:102410002B462046FEF785FA2846E2E7134300F1F3
:1024200008054360F4E770B5C8B1C1B1A1F1080275
:10243000002400F1080302E01C461B687BB19342B4
:10244000FAD15E68456826F00306AD1B45605CB1B5
:102450001A6822600122FEF768FA012070BD00228E
:10246000FEF763FA002070BD00225A60F2E770B5F3
:1024700028B1420703D14A0701D1182904D200220A
:10248000FEF754FA002070BDA1F1080303441024A4
:102490008360C0E9001400251D60836801225C6030
:1024A000C560FEF743FA012070BD70B504000ED080
:1024B00004F11400FDF703FF050002D0201DFDF715
:1024C000B6FE29462046FEF72DFA284670BD0021AB
:1024D0000846FEF727FA002070BD70B504000D46CF
:1024E00005D0E068A84202D82069A84207D86FF05A
:1024F000030632462046FEF716FA304670BD04F158
:102500001400FDF7E9FE201DFDF7B6FE0022294666
:102510002046FEF708FA002070BD2DE9F0411C4668
:1025200016460D4688B185B17EB174B1C0E902642A
:1025300005FB0641C0E904140027C0E90057234603
:1025400032462946FEF7F0F905E00020BDE8F081AB
:10255000A019206004466D1EFAD101202760F5E71E
:102560002DE9F041044680780026B8B3E56821469D
:102570002846FFF74DF82670214605F10C00B046BD
:102580000446FFF7AAFFA86800285DD02046FFF7A1
:102590008CFF040058D0284600F002FA00220646BC
:1025A000114600F0BBFA304600F04CFA8668074648
:1025B000314604F10C006A6AFEF72DF9F92020700B
:1025C00084F80280387BE07021462846FFF701F846
:1025D00031462846BDE8F041FEF7B0B9D4E901150F
:1025E000A86810B14078832808D02846FEF7A6F9DD
:1025F00021462846BDE8F041FEF7EBBF2846FEF72E
:102600009DF9284600F0CCF900220746114600F05B
:1026100085FA384600F016FA0746806804F10C0186
:1026200080466A6AFEF7F7F8F86808B1E178017049
:1026300041462846FEF789F92670214605F10C002F
:10264000BDE8F041FFF749BFBDE8F0812DE9F04159
:102650000446002721E0E078666900071CD527764C
:1026600000212046FEF774F9A068A8B1204600F0CA
:1026700097F900220546114600F050FAC4E90357C5
:10268000E86A6061E86A00B104610120EC622076CA
:1026900001462046FEF75BF93446002CDBD1BDE84D
:1026A000F081000070B5174C04F15605B4F8546081
:1026B0002846FDF73FFFF8B1124831465A30FDF782
:1026C00016FFE16D51F82000B0B10178F139092908
:1026D000ECD2DFE801F006050805050A0C050E003E
:1026E000E4E7216E06E0616E04E0A16E02E0E16EB7
:1026F00000E0216F8847D9E7BDE87040002000F076
:10270000F7B800006813002070B5114C054604F1BD
:102710005600B4F854603146FDF7DAFEB0420CD2F0
:10272000314604F15800FDF7E2FEE16D41F820501A
:10273000607A40B10120A07270BD2946BDE87040AA
:102740000220FFF72DBE03494FF08050086070BD96
:102750006813002004ED00E030B401210A4A417002
:1027600090F92030516A1C3201E00A46896819B19B
:1027700091F920409C42F8DCC0E90212906001B15E
:10278000C86030BCFEF7EFB86813002030B5154CB8
:102790004A1C02D00023E26A12E00022236B01E00F
:1027A0001A461B69002BFBD1C1610021C0E904124C
:1027B0000AB1106130BD206330BD13461269491B58
:1027C00012B1D5698D42F8D9C161C0E904230BB1BA
:1027D000186100E0E062002AEED0D369591AD16195
:1027E000506130BD6813002030B5C2690F4C0169DB
:1027F000551C4FF0000309D029B1CD692A44CA61A4
:10280000D0E904124A61416929B90BE009B1426972
:102810004A61416919B102690A61436130BD0069C9
:10282000206330BD0069E06230BD00006813002005
:1028300070B52E4DEC6A002C57D0E069401EE06167
:1028400053D16078632824D008DC13280DD03328B6
:102850000FD0432811D0532832D114E073281ED052
:10286000832822D093282BD125E02046FEF74FF86D
:1028700026E02046FEF774F822E0204600F0B8F883
:10288000FEF746F81CE0204600F0B2F8FEF75EF8CE
:1028900016E0204600F0ACF8FEF75BF810E02046AA
:1028A00000F0A6F8FEF743F80AE0204600F0A0F892
:1028B000FEF742F804E0204600F09AF8FEF744F8EC
:1028C000204600F0BFF801682046FEF74EF820468B
:1028D00000F082F8204600F0ADF8246924B1E069E8
:1028E0000028AED000206061EC6270BD681300204B
:1028F00010B515490400087A4B6902D002280FD0A0
:102900001CE04C6A02281ED1002C1CD094F9200037
:1029100093F92010884216DD204600F05DF805E0AE
:1029200094F9200093F92010884207DD1846FFF73C
:1029300013FF2046BDE8104000F0C0B82046BDE8B7
:10294000104000F077B810BD6813002070B5044641
:10295000002060702070A078104D81070AD5216B8F
:10296000C00604D5D5F88400FFF7B7FD02E0686F14
:10297000FFF759FDA078C0070ED0D5F8880020B128
:102980002146BDE87040FFF7A8BD2146D5F880007C
:10299000BDE87040FFF747BD70BD00006813002020
:1029A00081688A6882608A6802B1D0600020C8604D
:1029B0000846704710B591F9203082682AB192F923
:1029C00020409C4201DB1046F7E7C1E9022081600C
:1029D000002A00D0D16010BDC168002907D08268EC
:1029E0008A60816809B1C268CA600021C16070470D
:1029F00000E0C0680178F129FBD0704770B504464B
:102A00004078332815D194F823202046616AFEF7D8
:102A1000B5FE05000DD001460022204600F07EF8EC
:102A200094F8231023462A46606ABDE87040FDF7FB
:102A300096BF70BD0121417001460148FFF7BABF42
:102A400084130020816B90F82200C00601D460201E
:102A500000E02020084470470748416900290AD057
:102A60008A6B086B824203D90068044A904202D004
:102A70000120FFF795BC704768130020A52E5AE28D
:102A800070B50A4E012400210948B26D00F000FC27
:102A9000084DA862706E38B100210748F26D00F051
:102AA000F7FBA86400B90024204670BDE434000898
:102AB000A323000868130020C52B000810B50446A6
:102AC0000220607004488461FFF7C6FF2046BDE81D
:102AD0001040FDF749BF00006813002070B505469F
:102AE0000D480E46017A022913D1416A89B1446921
:102AF00031462046FDF72EFF657031462046FFF730
:102B000045FE05481C30FFF74BFFFFF7D7FF0120BC
:102B100070BD002070BD00006813002070B5144621
:102B20000D460646FDF721FF3046FFF78BFF056097
:102B30003046FFF759FE30461CB1BDE87040FFF744
:102B4000D7BEBDE87040FFF775BF000070B5FEF757
:102B50006EFD1B4CE068401CE060206D00B18047BA
:102B6000FFF766FE0020FFF7C3FE206C002805D0AB
:102B7000A269A16B914202D0C4E90E2070BDE06B46
:102B800010B1401EE063F9D1207A0228F6D1656ABF
:102B9000002DF3D095F9200091F920108842EDD155
:102BA0002846FFF719FFA06BFFF744FFA06BFDF766
:102BB000DAFE2846FFF782FFA563206CE06370BD54
:102BC000681300201CB50E480821D0E91820FFF733
:102BD0007FFB0C4C4FF0FF35E0640B4820652B4623
:102BE00000226946E06CFFF72DFB0028F7D1DDE9F4
:102BF0000001FDF7BBFEDDE900108847EFE70000AC
:102C0000E4340008681300200D2C000870B5154D41
:102C10006C6C002C20D02069401E20611AE0E06816
:102C200008B1A1688160E068686400231A4604F175
:102C30001801E86CFFF768FB18B121460320FFF785
:102C4000AFFBE078012808D0012060706C6C002C8C
:102C500002D020690028E2D070BD20466169FEF7ED
:102C6000A5FDF3E768130020FDF778FEDFF810C03C
:102C700000DF4FF0FF310020FDF76FFEFEE70000A0
:102C80001D32000870B514460D460646FDF76AFE73
:102C9000FEF737FC10B9FEF71FFC30B16FF00501ED
:102CA0000020FDF75AFE002070BD3046294622461E
:102CB000DFF804C000DF70BD9132000870B50E4629
:102CC0000500144603D00A4828600A4868603EB1EF
:102CD00034B10B2C00D90B2207A13046FDF79BFD28
:102CE000224631462846FDF717FE002070BD000041
:102CF00013543101D1B3FB025254582056352E35AE
:102D00002E310000034810B5047A2046FDF703FE7B
:102D1000204610BD6813002070B54B4D287A01285D
:102D200007D050B14FF0FF342046FDF7F2FD2046AA
:102D300070BDFDF7F3FD002070BD43489C210830B5
:102D4000FDF782FD414CE068E865208AA5F8540053
:102D5000A0682864D4E90B01FFF789FB10B1E06A91
:102D6000C5F88000D4E90501FFF781FB08B160696F
:102D700001E0D5F880006867D4E90701FFF777FB29
:102D800008B1E06901E0D5F88000A867D4E909013D
:102D9000FFF76DFB08B1606A01E0D5F88000E867D5
:102DA000606B38B1D0E902230168FFF7B6FB606BB6
:102DB000C5F88400A06B38B1D0E902230168FFF7A1
:102DC000ACFBA06BC5F88800E06B38B1D0E90223FA
:102DD0000168FFF7A2FBE06BC5F88C00206C38B1EE
:102DE000D0E902230168FFF798FB206CC5F890003A
:102DF000606C38B1D0E902230168FFF78EFB606C8C
:102E0000C5F89400A06C38B1D0E902230168FFF73F
:102E100084FBA06CC5F89800E06C38B1D0E90223BF
:102E20000168FFF77AFBE06CC5F89C00206D38B1B3
:102E3000D0E902230168FFF770FB206DC5F8A00000
:102E40000120287275E7000068130020E4340008B0
:102E500070B5234D4FF0FF34287A012801D0A01F10
:102E600021E0FFF70DFEE8B11E48FF210170007858
:102E700060F0FF00C043B0FA80F0C0F120011948B3
:102E800016380068C0F302228A4200D3511CFE208B
:102E900088401449C91E0870134E14497068FEF723
:102EA000E3FB20B12046FDF734FD204670BDFEF760
:102EB000D7FB2861FEF7C0FB09481C30FFF770FD07
:102EC000FFF7FCFD3078C00701D0022000E00320AE
:102ED00080F3148802202872FDF722FD002070BDC7
:102EE0006813002022ED00E0E434000875070008B4
:102EF0002DE9F041984616460F46040050D0207840
:102F0000FA284DD1F7B32046FEF74FFB05004FD00E
:102F100001462046FEF77CFB05F10C013846626A4B
:102F2000FDF779FC0EB1E878307039462046FDF7A0
:102F30000CFD4FF0000885F80080294604F10C00D4
:102F40000546FFF7CAFAA06838B32846FFF7ADFA7E
:102F5000050022D02046FFF723FD0646012200216E
:102F6000FFF7DCFD3046FFF76DFD8668074631460A
:102F700005F10C00626AFDF74EFCF920287085F817
:102F8000028000E00CE0387BE87029462046FEF71E
:102F900020FB31462046FDF7D1FC0020BDE8F08142
:102FA0006FF0030529462046FDF7C3FC2846F5E7E8
:102FB000B8F1000019D0024639462046FDF7BBFCA7
:102FC00041468320FFF78AFD48B10B4841692046FE
:102FD000FFF7F0FCEFF30980C0E9027602E020463B
:102FE000FDF7AAFC6FF00100D8E739462046FDF74F
:102FF000A8FC6FF00200D1E7681300202DE9F84F1C
:10300000894606006FF003012ED0B9F1000F2BD0D6
:1030100009F1030020F0030000F10C08B6FA86F372
:10302000B8FA88F0184420281ED306FB08F0DFF811
:10303000F4B00090F2B1D2E90450D2F800A0946844
:10304000491F2CB1A3070FD1D268342A0CD301E059
:10305000D2684AB96FF009012DB1AA0704D1009ACC
:10306000904201D30AE048B10020FDF762FC002045
:10307000BDE8F88F4FF0000A554603E014B1002771
:1030800095B11EE0DBF8A01019B10846FFF70DFA64
:1030900005E001223421DBF88000FFF784F9040009
:1030A0004FF00107ECD135E00022DBF87C000099FD
:1030B000FFF779F905001DD00099FDF7C5FB47F032
:1030C0000207FA202070A7700020C4E901A0C4E91B
:1030D0000990E06220632B464246314604F10C0021
:1030E000FFF71BFA1049CBF8701020466168FDF716
:1030F0001FFC14E0F8070CD0DBF8A02022B1214619
:103100001046FFF7EAF904E02146DBF88000FFF7FC
:103110008AF900246FF004010020FDF70AFC204624
:10312000A6E7000068130020612500082DE9F041A2
:10313000984616460F46040024D02078FA2821D15C
:1031400007B3A06810B14078832823D004F10C00A5
:10315000FFF7ABF905003AD0394605F10C00626A79
:10316000FDF759FBF92028700020A870EE70294661
:103170002046FEF72EFA39462046FDF7DFFB0020F9
:10318000BDE8F0816FF0030529462046FDF7D1FB2D
:103190002846F5E72046FDF7D1FB2046FFF700FC67
:1031A000054601220021FFF7B9FC2846FFF74AFC3B
:1031B0000546806839468046626AFDF72CFBE86860
:1031C00000B1067041462046FDF7BFFBD7E7B8F1D6
:1031D000000019D0024639462046FDF7B4FB4146AF
:1031E0009320FFF77BFC48B10B4841692046FFF76D
:1031F000E1FBEFF30980C0E9027602E02046FDF72B
:10320000A3FB6FF00100BBE739462046FDF798FBB2
:103210006FF00200B4E700006813002070B51B4D8A
:10322000287A022830D1686A00282DD06C69E06ABB
:10323000FFF70CFAA06930B100221146FFF76EFCCF
:10324000A069FDF78EFBEFF30980A0630F481C30E7
:10325000FFF7A6FBFFF732FC00206861E078C007AB
:103260000ED0042060700020E060686BA060686B86
:1032700000B1C4606C632046BDE87040FDF76CBBD4
:103280002046FFF763FBF6E770BD000068130020DF
:103290002DE9F74F82B05FEA000B10D0DFF8A8915C
:1032A0005AB310680090D2E90560D2E901A415690B
:1032B00080466FF008014CB1A00728D102E06FF002
:1032C000030124E0D068442821D301E0D068F0B99C
:1032D0006FF00A0115B1680719D1C6B15FEA08009D
:1032E00005D0401E382804D36FF00B010FE04FF0DB
:1032F00018089EB170070AD107E0002082460546F3
:1033000006464FF0180800900CE0482E06D2002028
:10331000FDF723FB002005B0BDE8F08F14B10027B6
:1033200095B129E0D9F8881019B10846FFF7BDF822
:1033300005E001224421D9F88000FFF734F80400A9
:103340004FF00107ECD178E066B94048D9F8841015
:10335000466D39B10846FFF7A8F805005DD047F083
:10336000100707E000223146D9F87400FFF71BF878
:10337000051E52D047F00207F12020700120607036
:10338000A77084F803A0009860600020A060E0604F
:1033900020616061A061E06184F8208084F8218070
:1033A000FD2184F8221084F823006062A919C4F872
:1033B0003CB04039A062C4E90D61C4E90B05244961
:1033C00029602249097849070AD56FF0100111EBED
:1033D000960105D04FF0CC3245F8042F491EFBD1A1
:1033E000A16B002241F82200521C0D2AFAD1194883
:1033F000C1E90D0B4FF08070C8630398086216494D
:10340000C9F8601020466268E16BFDF7A4FA14B1B8
:103410002046FFF76DFA20467DE7F8070CD0D9F873
:10342000882022B121461046FFF757F804E02146D4
:10343000D9F88000FEF7F7FF00246FF004010020A8
:10344000FDF78BFAE7E7000068130020E43400087A
:10345000A52E5AE2692C0008FD2900080000000092
:1034600000000000C41000204400000050110020A3
:10347000000100000100000000000000000000004A
:1034800000000000000000000811002044000000BF
:103490005012002000010000280000000000000081
:1034A00000000000000000000000000040100020AC
:1034B00034000000741000205000000000000000E4
:1034C00000000000000000000102030406070809D4
:1034D00000000000010203045254582056352E35D6
:1034E0002E31000003000000E8030000050000008A
:1034F000001000201000000000000000000000008C
:1035000000000000000000000000000000000000BB
:10351000000000200010000000000000000000007B
:10352000000000000000000000000000000000009B
:103530000000000000000000000100005C340008F2
:1035400080340008A434000804000000C4100020E7
:103550004C110020000000000000000000000000EE
:10356000000000000000000000000000000000005B
:1035700000000000000000000000000040100020DB
:1035800074100020A4350008000000200C14000076
:10359000D0080008E03500080C1400208404000066
:1035A000041B000801FF01FF01FF01FF01FF01FFF4
:1035B00001FF01FF01FF01FF01FF01FF01FF01FF0B
:1035C00001FF01FF01FF01FF01FF01774201D2105E
:1035D0006324F4099DD8340008D1B3FB0200000035
:040000050800019955
:00000001FF
